S00B0000524F4D2E737265632B
S11300000C9434000C9449000C9449000C9449005D
S11300100C9449000C9449000C9449000C94490038
S11300200C9449000C9449000C9449000C94490028
S11300300C9449000C9449000C9449000C94490018
S11300400C9449000C9449000C9449000C94490008
S11300500C9449000C9449000C9449000C944900F8
S11300600C9449000C94490011241FBECFEFD8E032
S1130070DEBFCDBF13E0A0E0B1E0EEE5FAE002C0E0
S113008005900D92A030B107D9F70E94C6040C94D4
S11300902D050C940000CF93DF93CDB7DEB7982FD6
S11300A0992344F4882F90E0880F991F982F8BE1AF
S11300B0892701C0880FDF91CF9108950F931F9373
S11300C0CF93DF93CDB7DEB7FC0105851DE00FC0EC
S11300D0212F30E0280F391F412F50E0445051099F
S11300E0480F591FFA014081F9014083145014301C
S11300F078F79C012F5F3F4FF9010083FC010685CF
S11301009C01225F3F4FFC014681F90140839C0121
S11301102A5F3F4FF9010083FC0102859C01265FA1
S11301203F4FFC014281F90140839C012E5F3F4F08
S1130130F9010083FC01038113E00FC0212F30E09B
S1130140280F391F412F50E04C5F5F4F480F591F54
S1130150FA014081F90140831C5F1F3078F30F9648
S1130160FC0100830000DF91CF911F910F9108954E
S11301706F927F928F929F92AF92BF92CF92DF92B3
S1130180EF92FF920F931F93CF93DF93CDB7DEB718
S113019060970FB6F894DEBF0FBECDBF6C017A0135
S11301A080EAC80ED11C10E014C0812F90E08E0D9F
S11301B09F1D212F30E0260F371FF9014081212F89
S11301C030E02C0D3D1DF90120812427FC01208302
S11301D01F5F103150F3F0E1CF1AD108C7010E941C
S11301E05E0010E013C0812F90E08E0D9F1D212F23
S11301F030E02E0D3F1DF9012081222F30E02050E8
S11302003F4FF9012081FC0120831F5F103158F317
S1130210AA24A39437C110E017C0812F90E09E0157
S11302202F5F3F4F820F931F212F30E02E0D3F1D74
S1130230F9014081212F30E02C0D3D1DF901208171
S11302402427FC0120831F5F103138F310E0F9C02C
S1130250812F90E09E012F5F3F4F820F931FFC017F
S11302604081812F90E001969E012F5F3F4F820FC6
S1130270931FFC0180814827812F90E002969E0104
S11302802F5F3F4F820F931FFC0180814827812FEE
S113029090E003969E012F5F3F4F820F931FFC0156
S11302A08081B42EB826712C2FC0012F070D802F0A
S11302B090E04701880E991E802F90E09E012F5FE9
S11302C03F4F820F931FFC018081682E6B24802F87
S11302D090E09E012F5F3F4F820F931FFC014081EE
S11302E0802F90E001969E012F5F3F4F820F931F56
S11302F0FC01808184270E944B008625F4018083C1
S1130300872D77247394780EF2E0F71570F6812F19
S113031090E003964701880E991E812F90E0039682
S11303209E012F5F3F4F820F931FFC018081082F96
S11303300B25812F90E003969E012F5F3F4F820F84
S1130340931FFC014081812F90E09E012F5F3F4F5E
S1130350820F931FFC01808184270E944B00802719
S1130360F4018083812F90E09E012F5F3F4F820F25
S1130370931FFC014081812F90E002969E012F5F24
S11303803F4F820F931FFC01808184270E944B0002
S11303900E944B00982E812F90E001969E012F5FC2
S11303A03F4F820F931FFC014081812F90E0039601
S11303B09E012F5F3F4F820F931FFC018081842792
S11303C00E944B000E944B00882E892D88250E9494
S11303D04B00B82E00E032C0212F30E0802F90E097
S11303E0820F931F8E0D9F1D412F50E0202F30E070
S11303F0240F351F2E0D3F1DF90130812B2D29258A
S11304002327FC012083212F30E0802F90E0820FEE
S1130410931F01968E0D9F1D412F50E0202F30E039
S1130420240F351F2F5F3F4F2E0D3F1DF9013081E3
S11304302B2D28252327FC0120830E5F043060F236
S11304401C5F103108F404CFC7010E945E0010E065
S113045013C0812F90E08E0D9F1D212F30E02E0DB3
S11304603F1DF9012081222F30E020503F4FF90138
S11304702081FC0120831F5F103158F3F0E1CF1A73
S1130480D108A39489E08A1508F0C5CE10E014C001
S1130490812F90E08E0D9F1D212F30E02E0D3F1DEA
S11304A0F9014081212F30E02C0D3D1DF9012081FF
S11304B02427FC0120831F5F103150F30000609655
S11304C00FB6F894DEBF0FBECDBFDF91CF911F9161
S11304D00F91FF90EF90DF90CF90BF90AF909F90DF
S11304E08F907F906F9008950F931F93CF93DF9316
S11304F0CDB7DEB7FC01018111E00FC0212F30E040
S1130500280F391F412F50E04C5F5F4F480F591F90
S1130510FA014081F90140831C5F1D3078F39C018E
S1130520235F3F4FF9010083FC0102819C012E5F90
S11305303F4FFC014285F90140839C01265F3F4FF8
S1130540F9010083FC0106819C012A5F3F4FFC01F5
S11305504685F90140839C01225F3F4FF9010083E6
S1130560FC0107851FE00FC0212F30E0280F391F41
S1130570412F50E044505109480F591FFA0140815E
S1130580F90140831450143078F70396FC0100837A
S11305900000DF91CF911F910F9108959F92AF9228
S11305A0BF92CF92DF92EF92FF920F931F93CF935C
S11305B0DF93CDB7DEB761970FB6F894DEBF0FBEF9
S11305C0CDBF6C017A0110E016C0812F90E0970135
S11305D0280F391F812F90E0860F971FFC0140815F
S11305E0C6016C01FFEFCF1ADF0AFC01808184276A
S11305F0F90180831F5F103140F399249394DBC089
S113060010E016C0812F90E09E012E5F3F4F820FB5
S1130610931F212F30E02E0D3F1DF9012081222F41
S113062030E020503E4FF9012081FC0120831F5F00
S1130630103140F3CE0102960E94740210E09EC075
S1130640812F90E09E012E5F3F4F820F931FFC018C
S11306504081812F90E001969E012E5F3F4F820FD3
S1130660931FFC0180814827812F90E002969E0110
S11306702E5F3F4F820F931FFC0180814827812FFB
S113068090E003969E012E5F3F4F820F931FFC0163
S113069080818427898300E040C0212F30E0802FAF
S11306A090E0820F931F5701A80EB91E212F30E04E
S11306B0802F90E0820F931F9E012E5F3F4F820F89
S11306C0931FFC014081812F90E09C012F5F3F4FDD
S11306D0802F90E0820F931F9E012E5F3F4F820F69
S11306E0931FFC01808184270E944B00482F212FF7
S11306F030E0802F90E0820F931F9E012E5F3F4FCA
S1130700820F931FFC018081942F98278981892768
S1130710F5018083802F01E0080F033008F4BDCF7A
S1130720812F90E003965701A80EB91E812F90E007
S113073003969E012E5F3F4F820F931FFC01408161
S1130740812F90E09E012E5F3F4F820F931FFC018B
S1130750808184270E944B00482F812F90E00396CC
S11307609E012E5F3F4F820F931FFC018081942FC7
S1130770982789818927F50180831C5F103108F44B
S11307805FCF10E015C0C6016C01FFEFCF1ADF0A7E
S1130790FC014081812F90E08E0D9F1D212F30E0C0
S11307A02E0D3F1DF90120812427FC0120831F5FAA
S11307B0103148F39394F9E0F91508F021CF10E0D3
S11307C013C0812F90E08E0D9F1D212F30E02E0D40
S11307D03F1DF9012081222F30E020503E4FF901C6
S11307E02081FC0120831F5F103158F3C7010E9450
S11307F0740210E015C0C6016C01FFEFCF1ADF0AC6
S1130800FC014081812F90E08E0D9F1D212F30E04F
S11308102E0D3F1DF90120812427FC0120831F5F39
S1130820103148F3000061960FB6F894DEBF0FBE96
S1130830CDBFDF91CF911F910F91FF90EF90DF908B
S1130840CF90BF90AF909F900895CF92DF92EF9298
S1130850FF920F931F93CF93DF9300D000D0CDB7B7
S1130860DEB7FC01CB01F12CE12C0BC09C01C901CA
S11308700196AF01FA013196DA014C91D9014C93FA
S1130880E394BFE0BE1590F78C0104501109E12CEC
S11308906BC0980189010F5F1F4FF9012081222F3E
S11308A030E020503E4FD9012C912C83F12C19C0FB
S11308B04F2D50E0980189010F5F1F4FF9012081EE
S11308C0222F30E020503E4FD9016C919E012F5FC2
S11308D03F4F240F351FF90160832F2DFF24F3941C
S11308E0F20EF2E0FF1520F76C0120E1C21AD108E4
S11308F0F12C1AC09C01C90101964F2D50E0BE0194
S11309006F5F7F4F460F571FDA016C91A6016A0192
S1130910BFEFCB1ADB0AFA0140814627D9014C9379
S11309202F2DFF24F394F20EB3E0BF1518F7F12C2A
S113093017C09C01C9010196A8018A010F5F1F4FCE
S1130940FA016081A6016A01FFEFCF1ADF0ADA011A
S11309504C914627F90140832F2DFF24F394F20E86
S1130960FBE0FF1530F7E39429E02E1508F091CF52
S113097000000F900F900F900F90DF91CF911F9177
S11309800F91FF90EF90DF90CF9008950F931F93F6
S1130990CF93DF93CDB7DEB7C45ED1090FB6F89419
S11309A0DEBF0FBECDBF9E012F513F4FF901918392
S11309B08083CE018D519F4FFC017183608310E0D1
S11309C00DC0802F90E09E012F5F3F4F820F931F39
S11309D0FC011083802F01E0080F1F5E1F3F89F781
S11309E010E00CC0812F90E09E012F5E3F4F820FDC
S11309F0931FFC011083812F11E0180F103190F325
S1130A009E012F5C3F4FCE014196B9010E942504FF
S1130A109E012F5D3F4FCE01C196A9019E012F5F1C
S1130A203F4FB9010E94CE02AE014F5D5F4F9E0160
S1130A302F5D3F4FCE01C196B9010E94B80080E0FE
S1130A4090E0CC51DF4F0FB6F894DEBF0FBECDBFA0
S1110A50DF91CF911F910F910895F894FFCF7D
S1130A5E52096AD53036A538BF40A39E81F3D7FB21
S1130A6E7CE339829B2FFF87348E4344C4DEE9CB6B
S1130A7E547B9432A6C2233DEE4C950B42FAC34EE0
S1130A8E082EA16628D924B2765BA2496D8BD12596
S1130A9E72F8F66486689816D4A45CCC5D65B6923A
S1130AAE6C704850FDEDB9DA5E154657A78D9D84DE
S1130ABE90D8AB008CBCD30AF7E45805B8B34506FE
S1130ACED02C1E8FCA3F0F02C1AFBD0301138A6B18
S1130ADE3A9111414F67DCEA97F2CFCEF0B4E67348
S1130AEE96AC7422E7AD3585E2F937E81C75DF6EF6
S1130AFE47F11A711D29C5896FB7620EAA18BE1B5C
S1130B0EFC563E4BC6D279209ADBC0FE78CD5AF401
S1130B1E1FDDA8338807C731B11210592780EC5F47
S1130B2E60517FA919B54A0D2DE57A9F93C99CEFA3
S1130B3EA0E03B4DAE2AF5B0C8EBBB3C83539961A4
S1130B4E172B047EBA77D626E169146355210C7DE2
S1130B5E637C777BF26B6FC53001672BFED7AB7668
S1130B6ECA82C97DFA5947F0ADD4A2AF9CA472C013
S1130B7EB7FD9326363FF7CC34A5E5F171D8311580
S1130B8E04C723C31896059A071280E2EB27B275A1
S1130B9E09832C1A1B6E5AA0523BD6B329E32F8419
S1130BAE53D100ED20FCB15B6ACBBE394A4C58CF11
S1130BBED0EFAAFB434D338545F9027F503C9FA8E5
S1130BCE51A3408F929D38F5BCB6DA2110FFF3D2B3
S1130BDECD0C13EC5F974417C4A77E3D645D197367
S1130BEE60814FDC222A908846EEB814DE5E0BDB61
S1130BFEE0323A0A4906245CC2D3AC629195E47998
S1130C0EE7C8376D8DD54EA96C56F4EA657AAE08F1
S1130C1EBA78252E1CA6B4C6E8DD741F4BBD8B8A8C
S1130C2E703EB5664803F60E613557B986C11D9EF2
S1130C3EE1F8981169D98E949B1E87E9CE5528DF69
S1130C4E8CA1890DBFE6426841992D0FB054BB1695
S9030000FC
