S01800004D4F544F525F50574D5F4452495645522E73726563FD
S11300000C942A000C9434000C9434000C943400A6
S11300100C9434000C9434000C9434000C9434008C
S11300200C9434000C9434000C9434000C9434007C
S11300300C9434000C9434000C9434000C9434006C
S11300400C9434000C9434000C9434000C9434005C
S11300500C94340011241FBECFE5D8E0DEBFCDBF21
S11300600E9406020C9447050C940000CF93DF9382
S113007000D0CDB7DEB789836A838981883068F57B
S11300808A818823A9F08BE390E02BE330E0F90127
S11300902081622F2981422F50E021E030E002C00C
S11300A0220F331F4A95E2F7262BFC012083C1C09F
S11300B08BE390E02BE330E0F90160812981422F4A
S11300C050E021E030E002C0220F331F4A95E2F7EE
S11300D020952623FC012083ACC089818830B0F1AF
S11300E08981803198F58A818823C1F088E390E082
S11300F028E330E0F9012081622F2981222F30E0AA
S1130100A9014850510921E030E002C0220F331FF9
S11301104A95E2F7262BFC0120838BC088E390E00C
S113012028E330E0F90160812981222F30E0A90120
S11301304850510921E030E002C0220F331F4A9594
S1130140E2F720952623FC01208373C08981803146
S1130150B0F18981883198F58A818823C1F085E3DB
S113016090E025E330E0F9012081622F2981222FDC
S113017030E0A9014051510921E030E002C0220FD2
S1130180331F4A95E2F7262BFC01208352C085E3F6
S113019090E025E330E0F90160812981222F30E0ED
S11301A0A9014051510921E030E002C0220F331F60
S11301B04A95E2F720952623FC0120833AC08981E1
S11301C08831B0F18981803298F58A818823C1F021
S11301D082E390E022E330E0F9012081622F29815B
S11301E0222F30E0A9014851510921E030E002C03A
S11301F0220F331F4A95E2F7262BFC01208319C0F6
S113020082E390E022E330E0F90160812981222F2A
S113021030E0A9014851510921E030E002C0220F29
S1130220331F4A95E2F720952623FC01208301C061
S113023000000F900F90DF91CF910895CF93DF933B
S113024000D0CDB7DEB789836A838981883068F5A9
S11302508A818823A9F08AE390E02AE330E0F90157
S11302602081622F2981422F50E021E030E002C03A
S1130270220F331F4A95E2F7262BFC012083C0C0CE
S11302808AE390E02AE330E0F90160812981422F7A
S113029050E021E030E002C0220F331F4A95E2F71C
S11302A020952623FC012083ABC089818830B0F1DE
S11302B08981803198F58A818823C1F087E390E0B1
S11302C027E330E0F9012081622F2981222F30E0D9
S11302D0A9014850510921E030E002C0220F331F28
S11302E04A95E2F7262BFC0120838AC087E390E03D
S11302F027E330E0F90160812981222F30E0A90150
S11303004850510921E030E002C0220F331F4A95C2
S1130310E2F720952623FC01208372C08981803175
S1130320B0F18981883198F58A818823C1F084E30A
S113033090E024E330E0F9012081622F2981222F0B
S113034030E0A9014051510921E030E002C0220F00
S1130350331F4A95E2F7262BFC01208351C084E326
S113036090E024E330E0F90160812981222F30E01C
S1130370A9014051510921E030E002C0220F331F8E
S11303804A95E2F720952623FC01208339C0898110
S11303908831B0F18981803298F58A818823C1F04F
S11303A081E390E021E330E0F9012081622F29818B
S11303B0222F30E0A9014851510921E030E002C068
S11303C0220F331F4A95E2F7262BFC01208318C025
S11303D081E390E021E330E0F90160812981222F5B
S11303E030E0A9014851510921E030E002C0220F58
S11303F0331F4A95E2F720952623FC01208300C091
S113040000000F900F90DF91CF910895CF93DF9369
S11304101F92CDB7DEB719820E94ED0481E00E94DD
S1130420B804198207C060E089810E941E02898194
S1130430865F898389818436B0F3F3CFCF93DF93CA
S113044000D0CDB7DEB789836A838A81882F90E094
S11304508130910509F4BDC0823091051CF4892BCB
S113046049F080C28230910509F45EC1039709F412
S113047001C278C22BE430E08981682F70E047E73D
S11304805CEE649FC001659F900D749F900D1124D4
S113049088579C4E44E650E0BA010E941F05CB01E8
S11304A0892F990F990BF90180832AE430E089811F
S11304B0682F70E047E75CEE649FC001659F900D74
S11304C0749F900D112488579C4E44E650E0BA0165
S11304D00E941F05CB01F901808329E430E0898162
S11304E0682F70E047E75CEE649FC001659F900D44
S11304F0749F900D112488579C4E44E650E0BA0135
S11305000E941F05CB01892F990F990BF901808354
S113051028E430E08981682F70E047E75CEE649F4F
S1130520C001659F900D749F900D112488579C4EB7
S113053044E650E0BA010E941F05CB01F901808313
S11305408FE490E02FE430E0F90120812260FC0187
S113055020838FE490E02FE430E0F90120812064CF
S1130560FC0120838FE490E02FE430E0F901208146
S11305702068FC0120838FE490E02FE430E0F9014F
S113058020812061FC0120838FE490E02FE430E09F
S1130590F90120812062FC0120838EE490E02EE4A6
S11305A030E0F90120812260FC0120838EE490E098
S11305B02EE430E0F90120812860FC0120838EE4E0
S11305C090E02EE430E0F90120812061FC012083D9
S11305D0C9C12BE430E08981482F50E089E893E1D8
S11305E0489FB001499F700D589F700D112444E637
S11305F050E0CB01BA010E941F05CB01892F990F4E
S1130600990BF90180832AE430E08981482F50E076
S113061089E893E1489FB001499F700D589F700D80
S1130620112444E650E0CB01BA010E941F05CB011E
S1130630F901808329E430E08981482F50E089E87A
S113064093E1489FB001499F700D589F700D11248C
S113065044E650E0CB01BA010E941F05CB01892F6B
S1130660990F990BF901808328E430E08981482FA0
S113067050E089E893E1489FB001499F700D589F6D
S1130680700D112444E650E0CB01BA010E941F050D
S1130690CB01F90180838FE490E02FE430E0F9018D
S11306A020812260FC0120838FE490E02FE430E07D
S11306B0F90120812F7BFC0120838FE490E02FE45B
S11306C030E0F90120812068FC0120838FE490E070
S11306D02FE430E0F90120812F7EFC0120838FE498
S11306E090E02FE430E0F90120812062FC012083B6
S11306F08EE490E02EE430E0F90120812260FC01D8
S113070020838EE490E02EE430E0F901208128601B
S1130710FC0120838EE490E02EE430E0F901208196
S11307202061FC0120831EC12BE430E08981682F05
S113073070E047E75CEE649FC001659F900D749F75
S1130740900D112488579C4E44E650E0BA010E9453
S11307501F05CB01892F990F990BF90180832AE496
S113076030E08981682F70E047E75CEE649FC00148
S1130770659F900D749F900D112488579C4E44E6FC
S113078050E0BA010E941F05CB01F901808329E4DE
S113079030E08981682F70E047E75CEE649FC00118
S11307A0659F900D749F900D112488579C4E44E6CC
S11307B050E0BA010E941F05CB01892F990F990BB4
S11307C0F901808328E430E08981682F70E047E7ED
S11307D05CEE649FC001659F900D749F900D112481
S11307E088579C4E44E650E0BA010E941F05CB0195
S11307F0F90180838FE490E02FE430E0F901208157
S11308002260FC0120838FE490E02FE430E0F901C2
S113081020812064FC0120838FE490E02FE430E009
S1130820F90120812068FC0120838FE490E02FE40B
S113083030E0F90120812061FC0120838FE490E005
S11308402FE430E0F90120812062FC0120838EE452
S113085090E02EE430E0F90120812260FC01208345
S11308608EE490E02EE430E0F90120812061FC0167
S1130870208378C08BE490E02981622F70E049E8FE
S113088053E1649F9001659F300D749F300D1124D6
S1130890232F330F330BFC0120838AE490E039814A
S11308A029E8329F202D1124FC01208389E490E063
S11308B02981622F70E049E853E1649F9001659FAC
S11308C0300D749F300D1124232F330F330BFC0193
S11308D0208388E490E0398129E8329F202D112477
S11308E0FC0120838FE490E02FE430E0F9012081C3
S11308F02260FC0120838FE490E02FE430E0F901D2
S113090020812F7BFC0120838FE490E02FE430E0F2
S1130910F90120812068FC0120838FE490E02FE41A
S113092030E0F90120812F7EFC0120838FE490E0E8
S11309302FE430E0F90120812062FC0120838EE461
S113094090E02EE430E0F90120812260FC01208354
S11309508EE490E02EE430E0F90120812061FC0176
S11309602083000000000F900F90DF91CF91089535
S1130970CF93DF931F92CDB7DEB789838981882F08
S113098090E0009719F0019791F022C061E08AE1AC
S11309900E94360060E08BE10E94360061E08EE147
S11309A00E94360060E08FE10E94360011C060E0D2
S11309B08AE10E94360061E08BE10E94360060E02B
S11309C08EE10E94360061E08FE10E943600000053
S11309D000000F90DF91CF910895CF93DF93CDB7AF
S11309E0DEB78DE490E0FC0110828CE490E0FC0121
S11309F0108261E08CE10E941E0161E08DE10E94A1
S1130A001E0161E08AE10E941E0161E08BE10E9407
S1130A101E0161E08EE10E941E0161E08FE10E94EF
S1130A201E0187E490E023E1FC01208386E490E04A
S1130A3028E8FC0120830000DF91CF91089597FB03
S1130A40072E16F4009407D077FD09D00E943305D1
S1130A5007FC05D03EF4909581959F4F08957095BD
S1130A6061957F4F0895AA1BBB1B51E107C0AA1FC4
S1130A70BB1FA617B70710F0A61BB70B881F991F3B
S1130A805A95A9F780959095BC01CD010895F894E5
S1050A90FFCF92
S9030000FC
